{
  "contractName": "OrderBook",
  "abi": [
    {
      "inputs": [],
      "stateMutability": "nonpayable",
      "type": "constructor"
    },
    {
      "anonymous": false,
      "inputs": [
        {
          "indexed": true,
          "internalType": "uint256",
          "name": "orderId",
          "type": "uint256"
        },
        {
          "indexed": true,
          "internalType": "address",
          "name": "trader",
          "type": "address"
        },
        {
          "indexed": false,
          "internalType": "bool",
          "name": "isBuyOrder",
          "type": "bool"
        }
      ],
      "name": "OrderCanceled",
      "type": "event"
    },
    {
      "anonymous": false,
      "inputs": [
        {
          "indexed": true,
          "internalType": "uint256",
          "name": "buyOrderId",
          "type": "uint256"
        },
        {
          "indexed": true,
          "internalType": "uint256",
          "name": "sellOrderId",
          "type": "uint256"
        },
        {
          "indexed": true,
          "internalType": "address",
          "name": "buyer",
          "type": "address"
        },
        {
          "indexed": false,
          "internalType": "address",
          "name": "seller",
          "type": "address"
        },
        {
          "indexed": false,
          "internalType": "uint256",
          "name": "price",
          "type": "uint256"
        },
        {
          "indexed": false,
          "internalType": "uint256",
          "name": "quantity",
          "type": "uint256"
        }
      ],
      "name": "TradeExecuted",
      "type": "event"
    },
    {
      "inputs": [
        {
          "internalType": "uint256",
          "name": "",
          "type": "uint256"
        }
      ],
      "name": "askOrders",
      "outputs": [
        {
          "internalType": "uint256",
          "name": "id",
          "type": "uint256"
        },
        {
          "internalType": "address",
          "name": "trader",
          "type": "address"
        },
        {
          "internalType": "bool",
          "name": "isBuyOrder",
          "type": "bool"
        },
        {
          "internalType": "uint256",
          "name": "price",
          "type": "uint256"
        },
        {
          "internalType": "uint256",
          "name": "quantity",
          "type": "uint256"
        },
        {
          "internalType": "bool",
          "name": "isFilled",
          "type": "bool"
        },
        {
          "internalType": "address",
          "name": "baseToken",
          "type": "address"
        },
        {
          "internalType": "address",
          "name": "quoteToken",
          "type": "address"
        }
      ],
      "stateMutability": "view",
      "type": "function",
      "constant": true
    },
    {
      "inputs": [],
      "name": "base",
      "outputs": [
        {
          "internalType": "contract IERC20",
          "name": "",
          "type": "address"
        }
      ],
      "stateMutability": "view",
      "type": "function",
      "constant": true
    },
    {
      "inputs": [
        {
          "internalType": "uint256",
          "name": "",
          "type": "uint256"
        }
      ],
      "name": "bidOrders",
      "outputs": [
        {
          "internalType": "uint256",
          "name": "id",
          "type": "uint256"
        },
        {
          "internalType": "address",
          "name": "trader",
          "type": "address"
        },
        {
          "internalType": "bool",
          "name": "isBuyOrder",
          "type": "bool"
        },
        {
          "internalType": "uint256",
          "name": "price",
          "type": "uint256"
        },
        {
          "internalType": "uint256",
          "name": "quantity",
          "type": "uint256"
        },
        {
          "internalType": "bool",
          "name": "isFilled",
          "type": "bool"
        },
        {
          "internalType": "address",
          "name": "baseToken",
          "type": "address"
        },
        {
          "internalType": "address",
          "name": "quoteToken",
          "type": "address"
        }
      ],
      "stateMutability": "view",
      "type": "function",
      "constant": true
    },
    {
      "inputs": [],
      "name": "quote",
      "outputs": [
        {
          "internalType": "contract IERC20",
          "name": "",
          "type": "address"
        }
      ],
      "stateMutability": "view",
      "type": "function",
      "constant": true
    },
    {
      "inputs": [
        {
          "internalType": "uint256",
          "name": "price",
          "type": "uint256"
        },
        {
          "internalType": "uint256",
          "name": "quantity",
          "type": "uint256"
        },
        {
          "internalType": "address",
          "name": "baseToken",
          "type": "address"
        },
        {
          "internalType": "address",
          "name": "quoteToken",
          "type": "address"
        }
      ],
      "name": "placeBuyOrder",
      "outputs": [],
      "stateMutability": "nonpayable",
      "type": "function"
    },
    {
      "inputs": [
        {
          "internalType": "uint256",
          "name": "price",
          "type": "uint256"
        },
        {
          "internalType": "uint256",
          "name": "quantity",
          "type": "uint256"
        },
        {
          "internalType": "address",
          "name": "baseToken",
          "type": "address"
        },
        {
          "internalType": "address",
          "name": "quoteToken",
          "type": "address"
        }
      ],
      "name": "placeSellOrder",
      "outputs": [],
      "stateMutability": "nonpayable",
      "type": "function"
    },
    {
      "inputs": [
        {
          "internalType": "uint256",
          "name": "orderId",
          "type": "uint256"
        },
        {
          "internalType": "bool",
          "name": "isBuyOrder",
          "type": "bool"
        }
      ],
      "name": "cancelOrder",
      "outputs": [],
      "stateMutability": "nonpayable",
      "type": "function"
    },
    {
      "inputs": [
        {
          "internalType": "uint256",
          "name": "orderId",
          "type": "uint256"
        }
      ],
      "name": "getBidOrderIndex",
      "outputs": [
        {
          "internalType": "uint256",
          "name": "",
          "type": "uint256"
        }
      ],
      "stateMutability": "view",
      "type": "function",
      "constant": true
    },
    {
      "inputs": [
        {
          "internalType": "uint256",
          "name": "orderId",
          "type": "uint256"
        }
      ],
      "name": "getAskOrderIndex",
      "outputs": [
        {
          "internalType": "uint256",
          "name": "",
          "type": "uint256"
        }
      ],
      "stateMutability": "view",
      "type": "function",
      "constant": true
    }
  ],
  "bytecode": "0x608060405234801561001057600080fd5b5061223f806100206000396000f3fe608060405234801561001057600080fd5b50600436106100935760003560e01c8063d19984c411610066578063d19984c41461010c578063dd3950aa14610143578063e008c05e1461017a578063e694e7d6146101aa578063f88d2047146101da57610093565b806336dc1c54146100985780635001f3b5146100b4578063999b93af146100d2578063a2347706146100f0575b600080fd5b6100b260048036038101906100ad9190611baf565b6101f6565b005b6100bc610373565b6040516100c99190611c75565b60405180910390f35b6100da610397565b6040516100e79190611c75565b60405180910390f35b61010a60048036038101906101059190611baf565b6103bd565b005b61012660048036038101906101219190611c90565b610529565b60405161013a989796959493929190611cf6565b60405180910390f35b61015d60048036038101906101589190611c90565b6105fb565b604051610171989796959493929190611cf6565b60405180910390f35b610194600480360381019061018f9190611c90565b6106cd565b6040516101a19190611d74565b60405180910390f35b6101c460048036038101906101bf9190611c90565b61071e565b6040516101d19190611d74565b60405180910390f35b6101f460048036038101906101ef9190611dbb565b61076f565b005b600083856102049190611e2a565b90506000829050818173ffffffffffffffffffffffffffffffffffffffff1663dd62ed3e33306040518363ffffffff1660e01b8152600401610247929190611e84565b602060405180830381865afa158015610264573d6000803e3d6000fd5b505050506040513d601f19601f820116820180604052508101906102889190611ec2565b10156102c9576040517f08c379a00000000000000000000000000000000000000000000000000000000081526004016102c090611f4c565b60405180910390fd5b600060405180610100016040528060028054905081526020013373ffffffffffffffffffffffffffffffffffffffff1681526020016001151581526020018881526020018781526020016000151581526020018673ffffffffffffffffffffffffffffffffffffffff1681526020018573ffffffffffffffffffffffffffffffffffffffff16815250905061035d816108d5565b61036a8160000151610dfa565b50505050505050565b60008054906101000a900473ffffffffffffffffffffffffffffffffffffffff1681565b600160009054906101000a900473ffffffffffffffffffffffffffffffffffffffff1681565b6000829050838173ffffffffffffffffffffffffffffffffffffffff1663dd62ed3e33306040518363ffffffff1660e01b81526004016103fe929190611e84565b602060405180830381865afa15801561041b573d6000803e3d6000fd5b505050506040513d601f19601f8201168201806040525081019061043f9190611ec2565b1015610480576040517f08c379a000000000000000000000000000000000000000000000000000000000815260040161047790611f4c565b60405180910390fd5b600060405180610100016040528060038054905081526020013373ffffffffffffffffffffffffffffffffffffffff1681526020016000151581526020018781526020018681526020016000151581526020018573ffffffffffffffffffffffffffffffffffffffff1681526020018473ffffffffffffffffffffffffffffffffffffffff168152509050610514816111e9565b610521816000015161170e565b505050505050565b6002818154811061053957600080fd5b90600052602060002090600602016000915090508060000154908060010160009054906101000a900473ffffffffffffffffffffffffffffffffffffffff16908060010160149054906101000a900460ff16908060020154908060030154908060040160009054906101000a900460ff16908060040160019054906101000a900473ffffffffffffffffffffffffffffffffffffffff16908060050160009054906101000a900473ffffffffffffffffffffffffffffffffffffffff16905088565b6003818154811061060b57600080fd5b90600052602060002090600602016000915090508060000154908060010160009054906101000a900473ffffffffffffffffffffffffffffffffffffffff16908060010160149054906101000a900460ff16908060020154908060030154908060040160009054906101000a900460ff16908060040160019054906101000a900473ffffffffffffffffffffffffffffffffffffffff16908060050160009054906101000a900473ffffffffffffffffffffffffffffffffffffffff16905088565b60006003805490508210610716576040517f08c379a000000000000000000000000000000000000000000000000000000000815260040161070d90611fb8565b60405180910390fd5b819050919050565b60006002805490508210610767576040517f08c379a000000000000000000000000000000000000000000000000000000000815260040161075e90611fb8565b60405180910390fd5b819050919050565b6000816107a5576003610781846106cd565b8154811061079257610791611fd8565b5b90600052602060002090600602016107d0565b60026107b08461071e565b815481106107c1576107c0611fd8565b5b90600052602060002090600602015b90503373ffffffffffffffffffffffffffffffffffffffff168160010160009054906101000a900473ffffffffffffffffffffffffffffffffffffffff1673ffffffffffffffffffffffffffffffffffffffff1614610864576040517f08c379a000000000000000000000000000000000000000000000000000000000815260040161085b90612079565b60405180910390fd5b60018160040160006101000a81548160ff0219169083151502179055503373ffffffffffffffffffffffffffffffffffffffff16837fd458cfb52f6b6c6fb914452529debd292af023555e0b6eced379c31956859dba846040516108c89190612099565b60405180910390a3505050565b6000600280549050905060028290806001815401808255809150506001900390600052602060002090600602016000909190919091506000820151816000015560208201518160010160006101000a81548173ffffffffffffffffffffffffffffffffffffffff021916908373ffffffffffffffffffffffffffffffffffffffff16021790555060408201518160010160146101000a81548160ff021916908315150217905550606082015181600201556080820151816003015560a08201518160040160006101000a81548160ff02191690831515021790555060c08201518160040160016101000a81548173ffffffffffffffffffffffffffffffffffffffff021916908373ffffffffffffffffffffffffffffffffffffffff16021790555060e08201518160050160006101000a81548173ffffffffffffffffffffffffffffffffffffffff021916908373ffffffffffffffffffffffffffffffffffffffff16021790555050505b600081118015610a85575081606001516002600183610a6091906120b4565b81548110610a7157610a70611fd8565b5b906000526020600020906006020160020154105b15610c9d576002600182610a9991906120b4565b81548110610aaa57610aa9611fd8565b5b906000526020600020906006020160028281548110610acc57610acb611fd8565b5b9060005260206000209060060201600082015481600001556001820160009054906101000a900473ffffffffffffffffffffffffffffffffffffffff168160010160006101000a81548173ffffffffffffffffffffffffffffffffffffffff021916908373ffffffffffffffffffffffffffffffffffffffff1602179055506001820160149054906101000a900460ff168160010160146101000a81548160ff02191690831515021790555060028201548160020155600382015481600301556004820160009054906101000a900460ff168160040160006101000a81548160ff0219169083151502179055506004820160019054906101000a900473ffffffffffffffffffffffffffffffffffffffff168160040160016101000a81548173ffffffffffffffffffffffffffffffffffffffff021916908373ffffffffffffffffffffffffffffffffffffffff1602179055506005820160009054906101000a900473ffffffffffffffffffffffffffffffffffffffff168160050160006101000a81548173ffffffffffffffffffffffffffffffffffffffff021916908373ffffffffffffffffffffffffffffffffffffffff1602179055509050508080610c95906120e8565b915050610a41565b8160028281548110610cb257610cb1611fd8565b5b90600052602060002090600602016000820151816000015560208201518160010160006101000a81548173ffffffffffffffffffffffffffffffffffffffff021916908373ffffffffffffffffffffffffffffffffffffffff16021790555060408201518160010160146101000a81548160ff021916908315150217905550606082015181600201556080820151816003015560a08201518160040160006101000a81548160ff02191690831515021790555060c08201518160040160016101000a81548173ffffffffffffffffffffffffffffffffffffffff021916908373ffffffffffffffffffffffffffffffffffffffff16021790555060e08201518160050160006101000a81548173ffffffffffffffffffffffffffffffffffffffff021916908373ffffffffffffffffffffffffffffffffffffffff1602179055509050505050565b600060028281548110610e1057610e0f611fd8565b5b9060005260206000209060060201905060005b60038054905081108015610e4657508160040160009054906101000a900460ff16155b156111e457600060038281548110610e6157610e60611fd8565b5b906000526020600020906006020190508260020154816002015411158015610e9857508060040160009054906101000a900460ff16155b156111d0576000610eb184600301548360030154611afd565b905060008460040160019054906101000a900473ffffffffffffffffffffffffffffffffffffffff16905060008560050160009054906101000a900473ffffffffffffffffffffffffffffffffffffffff1690506000866002015484610f179190611e2a565b90508273ffffffffffffffffffffffffffffffffffffffff166323b872dd8660010160009054906101000a900473ffffffffffffffffffffffffffffffffffffffff168960010160009054906101000a900473ffffffffffffffffffffffffffffffffffffffff16876040518463ffffffff1660e01b8152600401610f9e93929190612111565b6020604051808303816000875af1158015610fbd573d6000803e3d6000fd5b505050506040513d601f19601f82011682018060405250810190610fe1919061215d565b508173ffffffffffffffffffffffffffffffffffffffff166323b872dd8860010160009054906101000a900473ffffffffffffffffffffffffffffffffffffffff168760010160009054906101000a900473ffffffffffffffffffffffffffffffffffffffff16846040518463ffffffff1660e01b815260040161106793929190612111565b6020604051808303816000875af1158015611086573d6000803e3d6000fd5b505050506040513d601f19601f820116820180604052508101906110aa919061215d565b50838760030160008282546110bf91906120b4565b92505081905550838560030160008282546110da91906120b4565b9250508190555060008760030154148760040160006101000a81548160ff02191690831515021790555060008560030154148560040160006101000a81548160ff0219169083151502179055508660010160009054906101000a900473ffffffffffffffffffffffffffffffffffffffff1673ffffffffffffffffffffffffffffffffffffffff168688600001547f15e0d41a04dd94271eba462c33812ee3d36a08eddcf7e4cff32f9ef872dea02e8860010160009054906101000a900473ffffffffffffffffffffffffffffffffffffffff168960020154896040516111c39392919061218a565b60405180910390a4505050505b5080806111dc906121c1565b915050610e23565b505050565b6000600380549050905060038290806001815401808255809150506001900390600052602060002090600602016000909190919091506000820151816000015560208201518160010160006101000a81548173ffffffffffffffffffffffffffffffffffffffff021916908373ffffffffffffffffffffffffffffffffffffffff16021790555060408201518160010160146101000a81548160ff021916908315150217905550606082015181600201556080820151816003015560a08201518160040160006101000a81548160ff02191690831515021790555060c08201518160040160016101000a81548173ffffffffffffffffffffffffffffffffffffffff021916908373ffffffffffffffffffffffffffffffffffffffff16021790555060e08201518160050160006101000a81548173ffffffffffffffffffffffffffffffffffffffff021916908373ffffffffffffffffffffffffffffffffffffffff16021790555050505b60008111801561139957508160600151600360018361137491906120b4565b8154811061138557611384611fd8565b5b906000526020600020906006020160020154115b156115b15760036001826113ad91906120b4565b815481106113be576113bd611fd8565b5b9060005260206000209060060201600382815481106113e0576113df611fd8565b5b9060005260206000209060060201600082015481600001556001820160009054906101000a900473ffffffffffffffffffffffffffffffffffffffff168160010160006101000a81548173ffffffffffffffffffffffffffffffffffffffff021916908373ffffffffffffffffffffffffffffffffffffffff1602179055506001820160149054906101000a900460ff168160010160146101000a81548160ff02191690831515021790555060028201548160020155600382015481600301556004820160009054906101000a900460ff168160040160006101000a81548160ff0219169083151502179055506004820160019054906101000a900473ffffffffffffffffffffffffffffffffffffffff168160040160016101000a81548173ffffffffffffffffffffffffffffffffffffffff021916908373ffffffffffffffffffffffffffffffffffffffff1602179055506005820160009054906101000a900473ffffffffffffffffffffffffffffffffffffffff168160050160006101000a81548173ffffffffffffffffffffffffffffffffffffffff021916908373ffffffffffffffffffffffffffffffffffffffff16021790555090505080806115a9906120e8565b915050611355565b81600382815481106115c6576115c5611fd8565b5b90600052602060002090600602016000820151816000015560208201518160010160006101000a81548173ffffffffffffffffffffffffffffffffffffffff021916908373ffffffffffffffffffffffffffffffffffffffff16021790555060408201518160010160146101000a81548160ff021916908315150217905550606082015181600201556080820151816003015560a08201518160040160006101000a81548160ff02191690831515021790555060c08201518160040160016101000a81548173ffffffffffffffffffffffffffffffffffffffff021916908373ffffffffffffffffffffffffffffffffffffffff16021790555060e08201518160050160006101000a81548173ffffffffffffffffffffffffffffffffffffffff021916908373ffffffffffffffffffffffffffffffffffffffff1602179055509050505050565b60006003828154811061172457611723611fd8565b5b9060005260206000209060060201905060005b6002805490508110801561175a57508160040160009054906101000a900460ff16155b15611af85760006002828154811061177557611774611fd8565b5b9060005260206000209060060201905082600201548160020154101580156117ac57508060040160009054906101000a900460ff16155b15611ae45760006117c582600301548560030154611afd565b905060008460040160019054906101000a900473ffffffffffffffffffffffffffffffffffffffff16905060008560050160009054906101000a900473ffffffffffffffffffffffffffffffffffffffff169050600086600201548461182b9190611e2a565b90508273ffffffffffffffffffffffffffffffffffffffff166323b872dd8860010160009054906101000a900473ffffffffffffffffffffffffffffffffffffffff168760010160009054906101000a900473ffffffffffffffffffffffffffffffffffffffff16876040518463ffffffff1660e01b81526004016118b293929190612111565b6020604051808303816000875af11580156118d1573d6000803e3d6000fd5b505050506040513d601f19601f820116820180604052508101906118f5919061215d565b508173ffffffffffffffffffffffffffffffffffffffff166323b872dd8660010160009054906101000a900473ffffffffffffffffffffffffffffffffffffffff168960010160009054906101000a900473ffffffffffffffffffffffffffffffffffffffff16846040518463ffffffff1660e01b815260040161197b93929190612111565b6020604051808303816000875af115801561199a573d6000803e3d6000fd5b505050506040513d601f19601f820116820180604052508101906119be919061215d565b50838560030160008282546119d391906120b4565b92505081905550838760030160008282546119ee91906120b4565b9250508190555060008560030154148560040160006101000a81548160ff02191690831515021790555060008760030154148760040160006101000a81548160ff0219169083151502179055508460010160009054906101000a900473ffffffffffffffffffffffffffffffffffffffff1673ffffffffffffffffffffffffffffffffffffffff168686600001547f15e0d41a04dd94271eba462c33812ee3d36a08eddcf7e4cff32f9ef872dea02e8a60010160009054906101000a900473ffffffffffffffffffffffffffffffffffffffff168b6002015489604051611ad79392919061218a565b60405180910390a4505050505b508080611af0906121c1565b915050611737565b505050565b6000818310611b0c5781611b0e565b825b905092915050565b600080fd5b6000819050919050565b611b2e81611b1b565b8114611b3957600080fd5b50565b600081359050611b4b81611b25565b92915050565b600073ffffffffffffffffffffffffffffffffffffffff82169050919050565b6000611b7c82611b51565b9050919050565b611b8c81611b71565b8114611b9757600080fd5b50565b600081359050611ba981611b83565b92915050565b60008060008060808587031215611bc957611bc8611b16565b5b6000611bd787828801611b3c565b9450506020611be887828801611b3c565b9350506040611bf987828801611b9a565b9250506060611c0a87828801611b9a565b91505092959194509250565b6000819050919050565b6000611c3b611c36611c3184611b51565b611c16565b611b51565b9050919050565b6000611c4d82611c20565b9050919050565b6000611c5f82611c42565b9050919050565b611c6f81611c54565b82525050565b6000602082019050611c8a6000830184611c66565b92915050565b600060208284031215611ca657611ca5611b16565b5b6000611cb484828501611b3c565b91505092915050565b611cc681611b1b565b82525050565b611cd581611b71565b82525050565b60008115159050919050565b611cf081611cdb565b82525050565b600061010082019050611d0c600083018b611cbd565b611d19602083018a611ccc565b611d266040830189611ce7565b611d336060830188611cbd565b611d406080830187611cbd565b611d4d60a0830186611ce7565b611d5a60c0830185611ccc565b611d6760e0830184611ccc565b9998505050505050505050565b6000602082019050611d896000830184611cbd565b92915050565b611d9881611cdb565b8114611da357600080fd5b50565b600081359050611db581611d8f565b92915050565b60008060408385031215611dd257611dd1611b16565b5b6000611de085828601611b3c565b9250506020611df185828601611da6565b9150509250929050565b7f4e487b7100000000000000000000000000000000000000000000000000000000600052601160045260246000fd5b6000611e3582611b1b565b9150611e4083611b1b565b9250817fffffffffffffffffffffffffffffffffffffffffffffffffffffffffffffffff0483118215151615611e7957611e78611dfb565b5b828202905092915050565b6000604082019050611e996000830185611ccc565b611ea66020830184611ccc565b9392505050565b600081519050611ebc81611b25565b92915050565b600060208284031215611ed857611ed7611b16565b5b6000611ee684828501611ead565b91505092915050565b600082825260208201905092915050565b7f496e73756666696369656e7420616c6c6f77616e636500000000000000000000600082015250565b6000611f36601683611eef565b9150611f4182611f00565b602082019050919050565b60006020820190508181036000830152611f6581611f29565b9050919050565b7f4f72646572204944206f7574206f662072616e67650000000000000000000000600082015250565b6000611fa2601583611eef565b9150611fad82611f6c565b602082019050919050565b60006020820190508181036000830152611fd181611f95565b9050919050565b7f4e487b7100000000000000000000000000000000000000000000000000000000600052603260045260246000fd5b7f4f6e6c7920746865207472616465722063616e2063616e63656c20746865206f60008201527f7264657200000000000000000000000000000000000000000000000000000000602082015250565b6000612063602483611eef565b915061206e82612007565b604082019050919050565b6000602082019050818103600083015261209281612056565b9050919050565b60006020820190506120ae6000830184611ce7565b92915050565b60006120bf82611b1b565b91506120ca83611b1b565b9250828210156120dd576120dc611dfb565b5b828203905092915050565b60006120f382611b1b565b91506000820361210657612105611dfb565b5b600182039050919050565b60006060820190506121266000830186611ccc565b6121336020830185611ccc565b6121406040830184611cbd565b949350505050565b60008151905061215781611d8f565b92915050565b60006020828403121561217357612172611b16565b5b600061218184828501612148565b91505092915050565b600060608201905061219f6000830186611ccc565b6121ac6020830185611cbd565b6121b96040830184611cbd565b949350505050565b60006121cc82611b1b565b91507fffffffffffffffffffffffffffffffffffffffffffffffffffffffffffffffff82036121fe576121fd611dfb565b5b60018201905091905056fea264697066735822122073b17d77fcbb4641dc1e8f67e06a65c3394c322c297fd7206cd69fba520f9f4c64736f6c634300080f0033",
  "immutableReferences": {},
  "source": "// SPDX-License-Identifier: MIT\npragma solidity >=0.4.22 <0.9.0;\n\n// Import the IERC20 interface from the OpenZeppelin library\nimport \"@openzeppelin/contracts/token/ERC20/IERC20.sol\";\nimport \"@openzeppelin/contracts/token/ERC20/ERC20.sol\";\n\ncontract Token1 is ERC20 {\n    // Constructor function that initializes the ERC20 token with a custom name, symbol, and initial supply\n    // The name, symbol, and initial supply are passed as arguments to the constructor\n    constructor(\n        string memory name,\n        string memory symbol,\n        uint256 initialSupply\n    ) ERC20(name, symbol) {\n        // Mint the initial supply of tokens to the deployer's address\n        _mint(msg.sender, initialSupply);\n    }\n}\n\ncontract Token2 is ERC20 {\n    constructor(\n        string memory name,\n        string memory symbol,\n        uint256 initialSupply\n    ) ERC20(name, symbol) {\n        // Mint the initial supply of tokens to the deployer's address\n        _mint(msg.sender, initialSupply);\n    }\n}\n\ncontract OrderBook {\n    // ERC20 Tokens\n    IERC20 public base;\n    IERC20 public quote;\n\n    // Define the Order struct\n    struct Order {\n        uint256 id;\n        address trader;\n        bool isBuyOrder;\n        uint256 price;\n        uint256 quantity;\n        bool isFilled;\n        address baseToken; // ERC20 token address for the base asset\n        address quoteToken; // ERC20 token address for the quote asset (e.g., stablecoin)\n    }\n\n    // Arrays to store bid (buy) orders and ask (sell) orders\n    Order[] public bidOrders;\n    Order[] public askOrders;\n\n    // Events\n    event OrderCanceled(\n        uint256 indexed orderId,\n        address indexed trader,\n        bool isBuyOrder\n    );\n    event TradeExecuted(\n        uint256 indexed buyOrderId,\n        uint256 indexed sellOrderId,\n        address indexed buyer,\n        address seller,\n        uint256 price,\n        uint256 quantity\n    );\n\n    constructor() {}\n\n    // Place a buy order\n\n    function placeBuyOrder(\n        uint256 price,\n        uint256 quantity,\n        address baseToken,\n        address quoteToken\n    ) external {\n        // Check that the trader has approved enough quote tokens to cover the order value\n        uint256 orderValue = price * quantity;\n        IERC20 quoteTokenContract = IERC20(quoteToken);\n        require(\n            quoteTokenContract.allowance(msg.sender, address(this)) >=\n                orderValue,\n            \"Insufficient allowance\"\n        );\n\n        // Insert the buy order and match it with compatible sell orders\n        Order memory newOrder = Order({\n            id: bidOrders.length,\n            trader: msg.sender,\n            isBuyOrder: true,\n            price: price,\n            quantity: quantity,\n            isFilled: false,\n            baseToken: baseToken,\n            quoteToken: quoteToken\n        });\n\n        insertBidOrder(newOrder);\n        matchBuyOrder(newOrder.id);\n    }\n\n    // Place a sell order\n\n    function placeSellOrder(\n        uint256 price,\n        uint256 quantity,\n        address baseToken,\n        address quoteToken\n    ) external {\n        // Check that the trader has approved enough base tokens to cover the order quantity\n\n        IERC20 baseTokenContract = IERC20(baseToken);\n\n        require(\n            baseTokenContract.allowance(msg.sender, address(this)) >= quantity,\n            \"Insufficient allowance\"\n        );\n\n        // Insert the sell order and match it with compatible buy orders\n\n        Order memory newOrder = Order({\n            id: askOrders.length,\n            trader: msg.sender,\n            isBuyOrder: false,\n            price: price,\n            quantity: quantity,\n            isFilled: false,\n            baseToken: baseToken,\n            quoteToken: quoteToken\n        });\n\n        insertAskOrder(newOrder);\n\n        matchSellOrder(newOrder.id);\n    }\n\n    // Function to cancel an existing order\n    function cancelOrder(uint256 orderId, bool isBuyOrder) external {\n        // Retrieve the order from the appropriate array\n        Order storage order = isBuyOrder\n            ? bidOrders[getBidOrderIndex(orderId)]\n            : askOrders[getAskOrderIndex(orderId)];\n\n        // Verify that the caller is the original trader\n        require(\n            order.trader == msg.sender,\n            \"Only the trader can cancel the order\"\n        );\n\n        // Mark the order as filled (canceled)\n        order.isFilled = true;\n        emit OrderCanceled(orderId, msg.sender, isBuyOrder);\n    }\n\n    // Internal function to insert a new buy order into the bidOrders array\n    // while maintaining sorted order (highest to lowest price)\n    function insertBidOrder(Order memory newOrder) internal {\n        uint256 i = bidOrders.length;\n\n        bidOrders.push(newOrder);\n\n        while (i > 0 && bidOrders[i - 1].price < newOrder.price) {\n            bidOrders[i] = bidOrders[i - 1];\n\n            i--;\n        }\n\n        bidOrders[i] = newOrder;\n    }\n\n    // Internal function to insert a new sell order into the askOrders array\n    // while maintaining sorted order (lowest to highest price)\n    function insertAskOrder(Order memory newOrder) internal {\n        uint256 i = askOrders.length;\n\n        askOrders.push(newOrder);\n\n        while (i > 0 && askOrders[i - 1].price > newOrder.price) {\n            askOrders[i] = askOrders[i - 1];\n\n            i--;\n        }\n\n        askOrders[i] = newOrder;\n    }\n\n    // Internal function to match a buy order with compatible ask orders\n    function matchBuyOrder(uint256 buyOrderId) internal {\n        Order storage buyOrder = bidOrders[buyOrderId];\n\n        for (uint256 i = 0; i < askOrders.length && !buyOrder.isFilled; i++) {\n            Order storage sellOrder = askOrders[i];\n\n            if (sellOrder.price <= buyOrder.price && !sellOrder.isFilled) {\n                uint256 tradeQuantity = min(\n                    buyOrder.quantity,\n                    sellOrder.quantity\n                );\n\n                // Execute the trade\n\n                IERC20 baseTokenContract = IERC20(buyOrder.baseToken);\n\n                IERC20 quoteTokenContract = IERC20(buyOrder.quoteToken);\n\n                uint256 tradeValue = tradeQuantity * buyOrder.price;\n\n                // Transfer base tokens from the seller to the buyer\n\n                baseTokenContract.transferFrom(\n                    sellOrder.trader,\n                    buyOrder.trader,\n                    tradeQuantity\n                );\n\n                // Transfer quote tokens from the buyer to the seller\n\n                quoteTokenContract.transferFrom(\n                    buyOrder.trader,\n                    sellOrder.trader,\n                    tradeValue\n                );\n\n                // Update order quantities and fulfillment status\n\n                buyOrder.quantity -= tradeQuantity;\n\n                sellOrder.quantity -= tradeQuantity;\n\n                buyOrder.isFilled = buyOrder.quantity == 0;\n\n                sellOrder.isFilled = sellOrder.quantity == 0;\n\n                // Emit the TradeExecuted event\n                emit TradeExecuted(\n                    buyOrder.id,\n                    i,\n                    buyOrder.trader,\n                    sellOrder.trader,\n                    sellOrder.price,\n                    tradeQuantity\n                );\n            }\n        }\n    }\n\n    // Internal function to match a sell order with compatible bid orders\n    function matchSellOrder(uint256 sellOrderId) internal {\n        Order storage sellOrder = askOrders[sellOrderId];\n\n        for (uint256 i = 0; i < bidOrders.length && !sellOrder.isFilled; i++) {\n            Order storage buyOrder = bidOrders[i];\n\n            if (buyOrder.price >= sellOrder.price && !buyOrder.isFilled) {\n                uint256 tradeQuantity = min(\n                    buyOrder.quantity,\n                    sellOrder.quantity\n                );\n\n                // Execute the trade\n\n                IERC20 baseTokenContract = IERC20(sellOrder.baseToken);\n\n                IERC20 quoteTokenContract = IERC20(sellOrder.quoteToken);\n\n                uint256 tradeValue = tradeQuantity * sellOrder.price;\n\n                // Transfer base tokens from the seller to the buyer\n\n                baseTokenContract.transferFrom(\n                    sellOrder.trader,\n                    buyOrder.trader,\n                    tradeQuantity\n                );\n\n                // Transfer quote tokens from the buyer to the seller\n\n                quoteTokenContract.transferFrom(\n                    buyOrder.trader,\n                    sellOrder.trader,\n                    tradeValue\n                );\n\n                // Update order quantities and fulfillment status\n\n                buyOrder.quantity -= tradeQuantity;\n\n                sellOrder.quantity -= tradeQuantity;\n\n                buyOrder.isFilled = buyOrder.quantity == 0;\n\n                sellOrder.isFilled = sellOrder.quantity == 0;\n\n                // Emit the TradeExecuted event\n                emit TradeExecuted(\n                    buyOrder.id,\n                    i,\n                    buyOrder.trader,\n                    sellOrder.trader,\n                    sellOrder.price,\n                    tradeQuantity\n                );\n            }\n        }\n    }\n\n    // Function to get the index of a buy order in the bidOrders array\n    function getBidOrderIndex(uint256 orderId) public view returns (uint256) {\n        require(orderId < bidOrders.length, \"Order ID out of range\");\n        return orderId;\n    }\n\n    // Function to get the index of a seller order in the askOrders array\n    function getAskOrderIndex(uint256 orderId) public view returns (uint256) {\n        require(orderId < askOrders.length, \"Order ID out of range\");\n        return orderId;\n    }\n\n    // Helper function to find the minimum of two values\n    function min(uint256 a, uint256 b) internal pure returns (uint256) {\n        return a < b ? a : b;\n    }\n}\n",
  "sourcePath": "/Users/chris/Downloads/Projects/orderbook/contracts/OrderBook.sol",
  "compiler": {
    "name": "solc",
    "version": "0.8.15+commit.e14f2714.Emscripten.clang"
  },
  "schemaVersion": "3.4.8",
  "updatedAt": "2023-04-12T10:29:40.782Z",
  "networkType": "ethereum",
  "devdoc": {
    "kind": "dev",
    "methods": {},
    "version": 1
  },
  "userdoc": {
    "kind": "user",
    "methods": {},
    "version": 1
  }
}